{
  "contractName": "DappToken",
  "abi": [
    {
      "inputs": [],
      "payable": false,
      "stateMutability": "nonpayable",
      "type": "constructor"
    },
    {
      "constant": true,
      "inputs": [],
      "name": "totalSupply",
      "outputs": [
        {
          "internalType": "uint256",
          "name": "",
          "type": "uint256"
        }
      ],
      "payable": false,
      "stateMutability": "view",
      "type": "function"
    }
  ],
  "bytecode": "0x6080604052348015600f57600080fd5b50620f42406000819055506084806100286000396000f3fe6080604052348015600f57600080fd5b506004361060285760003560e01c806318160ddd14602d575b600080fd5b60336049565b6040518082815260200191505060405180910390f35b6000548156fea265627a7a7231582016e4b6dfc416a8d6b8e0ad66e9cb2bcef8ae44fdfc60bdc75721d43f0c929b4f64736f6c63430005100032",
  "source": "pragma solidity  ^0.5.11;\n\ncontract DappToken{\n\n    uint256 public totalSupply;\n\n    //constructor\n    //Set the total number of tokens\n    //Read the total number of tokens\n    constructor () public{\n        totalSupply = 1000000;\n    }\n\n}",
  "sourcePath": "/home/christos/truffle/token_sale/contracts/DappToken.sol",
  "compiler": {
    "name": "solc",
    "version": "0.5.16+commit.9c3226ce.Emscripten.clang"
  },
  "schemaVersion": "3.4.1",
  "updatedAt": "2021-06-21T12:39:51.333Z",
  "networkType": "ethereum",
  "devdoc": {
    "methods": {}
  },
  "userdoc": {
    "methods": {}
  }
}